:100000000C9434000C9449000C9449000C94490061
:100010000C9449000C9449000C9449000C9449003C
:100020000C9449000C9449000C9449000C9449002C
:100030000C9449000C9449000C9449000C9449001C
:100040000C9449000C9449000C9449000C9449000C
:100050000C9449000C9449000C9449000C944900FC
:100060000C9449000C94490011241FBECFEFD8E036
:10007000DEBFCDBF11E0A0E0B1E0E6E5F5E002C0F3
:1000800005900D92A031B107D9F70E9489000C9418
:10009000A9020C94000085B5856085BD0895409A3D
:1000A00085E38A95F1F70000409816BC03C086B539
:1000B0008B3F68F5319BFBCF16BC05C086B58B3FE7
:1000C00010F016BC02C03199F9CF66B570E0762FFA
:1000D0006627770F770F882777FD8095982F0E94E6
:1000E000BA0120E034E244E759E40E94460220E0ED
:1000F00034E244E75BE40E94240120E030E048E67B
:1001000052E40E9424010E948C01862F08958FEFF3
:100110000895389A87B1827087B90E94A8000E941A
:100120004B000E944F00C82F80E091E00E94C80061
:100130008C2F0E94D7008AE00E94C0002FEF83ED31
:1001400090E3215080409040E1F700C00000E9CFEB
:10015000E0ECF0E08081826080831092C5008FEC3B
:100160008093C400E2ECF0E0808186608083E1EC63
:10017000F0E0808180618083808188608083089541
:10018000E0ECF0E0908195FFFDCF8093C6000895EC
:10019000CF93DF93EC018881882331F021960E9470
:1001A000C00089918111FBCFDF91CF9108950F930A
:1001B0001F93CF93DF9300D000D0CDB7DEB740E3DD
:1001C00050E060E070E049835A836B837C83811147
:1001D00003C000E010E022C0FE01319600E010E014
:1001E0004DEC849F912D1124969596959695292FE7
:1001F000220F322F330F330F230F821B805D819329
:10020000892F98012F5F3F4F992311F08901E9CF82
:10021000FE01E20FF31F118211236CF0E1E0F0E028
:10022000EC0FFD1FE00FF11F80810E94C000015004
:10023000110911239CF70F900F900F900F90DF91F1
:10024000CF911F910F9108950CD0E6C0DED040F001
:10025000D5D030F021F45F3F19F0C7C0511110C163
:10026000CAC0EBD098F39923C9F35523B1F3951B7A
:10027000550BBB27AA2762177307840738F09F5FC7
:100280005F4F220F331F441FAA1FA9F333D00E2E36
:100290003AF0E0E830D091505040E695001CCAF7A3
:1002A00029D0FE2F27D0660F771F881FBB1F261768
:1002B00037074807AB07B0E809F0BB0B802DBF013B
:1002C000FF2793585F4F2AF09E3F510568F08DC07D
:1002D000D7C05F3FECF3983EDCF386957795679542
:1002E000B795F7959F5FC9F7880F911D96958795EC
:1002F00097F90895E1E0660F771F881FBB1F62170B
:1003000073078407BA0720F0621B730B840BBA0BC8
:10031000EE1F88F7E095089598D088F09F5790F0E9
:10032000B92F9927B751A0F0D1F0660F771F881F1A
:10033000991F1AF0BA95C9F712C0B13081F09FD059
:10034000B1E008959CC0672F782F8827B85F39F0F7
:10035000B93FCCF3869577956795B395D9F73EF479
:1003600090958095709561957F4F8F4F9F4F089521
:10037000E89409C097FB3EF490958095709561953F
:100380007F4F8F4F9F4F9923A9F0F92F96E9BB27F5
:100390009395F695879577956795B795F111F8CF71
:1003A000FAF4BB0F11F460FF1BC06F5F7F4F8F4FDC
:1003B0009F4F16C0882311F096E911C0772321F0D2
:1003C0009EE8872F762F05C0662371F096E8862F6A
:1003D00070E060E02AF09A95660F771F881FDAF7C1
:1003E000880F9695879597F9089597F99F6780E804
:1003F00070E060E008959FEF80EC089500240A9477
:100400001616170618060906089500240A941216EF
:100410001306140605060895092E0394000C11F422
:10042000882352F0BB0F40F4BF2B11F460FF04C0CF
:100430006F5F7F4F8F4F9F4F089557FD9058440F28
:10044000551F59F05F3F71F04795880F97FB991F33
:1004500061F09F3F79F087950895121613061406F0
:10046000551FF2CF4695F1DF08C01616170618067D
:10047000991FF1CF86957105610508940895E89458
:10048000BB2766277727CB0197F908950BD0C4CFF8
:10049000B5DF28F0BADF18F0952309F0A6CFABCF6F
:1004A0001124EECFCADFA0F3959FD1F3950F50E052
:1004B000551F629FF001729FBB27F00DB11D639F16
:1004C000AA27F00DB11DAA1F649F6627B00DA11DBC
:1004D000661F829F2227B00DA11D621F739FB00D62
:1004E000A11D621F839FA00D611D221F749F3327D2
:1004F000A00D611D231F849F600D211D822F762F6B
:100500006A2F11249F5750408AF0E1F088234AF067
:10051000EE0FFF1FBB1F661F771F881F91505040B3
:10052000A9F79E3F510570F060CFAACF5F3FECF373
:10053000983EDCF3869577956795B795F795E7959F
:100540009F5FC1F7FE2B880F911D9695879597F9B0
:060550000895F894FFCFAE
:1005560044697374616E636528636D29203D2000CC
:00000001FF
