:100000000C945C000C9479000C9479000C947900A9
:100010000C9479000C9479000C9479000C9479007C
:100020000C9479000C9479000C9479000C9479006C
:100030000C9479000C9479000C9479000C9479005C
:100040000C94F7000C9479000C9479000C947900CE
:100050000C9479000C9479000C9479000C9479003C
:100060000C9479000C947900000000080002010053
:100070000003040700000000000000000102040863
:100080001020408001020408102001020408102002
:10009000040404040404040402020202020203032E
:1000A0000303030300000000250028002B000000CC
:1000B0000000240027002A0011241FBECFEFD8E043
:1000C000DEBFCDBF11E0A0E0B1E0E4EBF4E002C0A0
:1000D00005900D92AA31B107D9F721E0AAE1B1E06C
:1000E00001C01D92AD32B207E1F70E9421020C94CB
:1000F00058020C940000CF93DF93CAE0D1E08881CE
:10010000229661E00E94B10181E0CA31D807B9F7B7
:100110000E9441016093200170932101809322018C
:1001200090932301DF91CF910895CF92DF92EF92C8
:10013000FF920F931F93CF93DF930E94410160932F
:100140001C0170931D0180931E0190931F0100916B
:1001500020011091210120912201309123016B0196
:100160007C01C01AD10AE20AF30A49EEC41643E040
:10017000D406E104F10490F1609320017093210111
:100180008093220190932301CAE0D1E000E010E0C7
:1001900088812296E0911A01F0911B01E050FF4FF7
:1001A000608170E0002E02C0759567950A94E2F7B1
:1001B000617077270E94EA010F5F1F4F0830110519
:1001C00039F780911A0190911B0101966AE070E065
:1001D0000E94300290931B0180931A01DF91CF910E
:1001E0001F910F91FF90EF90DF90CF9008951F9295
:1001F0000F920FB60F9211242F933F938F939F93DB
:10020000AF93BF938091250190912601A091270182
:10021000B09128013091240123E0230F2D3720F4E1
:100220000196A11DB11D05C026E8230F0296A11D50
:10023000B11D209324018093250190932601A09362
:100240002701B09328018091290190912A01A09162
:100250002B01B0912C010196A11DB11D80932901A4
:1002600090932A01A0932B01B0932C01BF91AF91E1
:100270009F918F913F912F910F900FBE0F901F90E4
:1002800018952FB7F89460912501709126018091FF
:100290002701909128012FBF0895789484B582603A
:1002A00084BD84B5816084BD85B5826085BD85B51A
:1002B000816085BDEEE6F0E0808181608083E1E8C9
:1002C000F0E0108280818260808380818160808301
:1002D000E0E8F0E0808181608083E1EBF0E0808104
:1002E00084608083E0EBF0E0808181608083EAE7D6
:1002F000F0E080818460808380818260808380815F
:10030000816080838081806880831092C10008951D
:10031000833081F028F4813099F08230A1F0089583
:100320008730A9F08830B9F08430D1F48091800012
:100330008F7D03C0809180008F7780938000089527
:1003400084B58F7702C084B58F7D84BD0895809178
:10035000B0008F7703C08091B0008F7D8093B00094
:100360000895CF93DF9390E0FC01E458FF4F249170
:10037000FC01E057FF4F8491882349F190E0880FFA
:10038000991FFC01E255FF4FA591B4918C559F4FE9
:10039000FC01C591D4919FB7611108C0F8948C916C
:1003A000209582238C93888182230AC0623051F485
:1003B000F8948C91322F309583238C938881822BF3
:1003C000888304C0F8948C91822B8C939FBFDF911B
:1003D000CF9108950F931F93CF93DF931F92CDB7C3
:1003E000DEB7282F30E0F901E859FF4F8491F90179
:1003F000E458FF4F1491F901E057FF4F0491002397
:10040000C9F0882321F069830E9488016981E02F67
:10041000F0E0EE0FFF1FEC55FF4FA591B4919FB791
:10042000F8948C91611103C01095812301C0812B38
:100430008C939FBF0F90DF91CF911F910F910895E3
:1004400008950E944D010E9420020E947B00C0E09E
:10045000D0E00E9495002097E1F30E940000F9CFC0
:1004600097FB072E16F4009407D077FD09D00E9461
:10047000440207FC05D03EF4909581959F4F089566
:10048000709561957F4F0895AA1BBB1B51E107C072
:10049000AA1FBB1FA617B70710F0A61BB70B881F14
:1004A000991F5A95A9F780959095BC01CD010895A3
:0404B000F894FFCFEE
:1004B400FC60DAF266B6BEE4FEE60000010002006B
:0A04C4000300040005000600070015
:00000001FF
