:100000000C9434000C943E000C943E000C943E0082
:100010000C943E000C943E000C943E000C943E0068
:100020000C943E000C943E000C943E000C943E0058
:100030000C943E000C943E000C943E000C943E0048
:100040000C943E000C943E000C943E000C943E0038
:100050000C943E000C943E000C943E000C943E0028
:100060000C943E000C943E0011241FBECFEFD8E04C
:10007000DEBFCDBF0E9440000C9489000C940000AC
:1000800084B18E6084B9E0EBF0E08081836080838E
:10009000808180688083E1EBF0E0808184608083F0
:1000A0002A9A2A98299A80E090E0E3EBF0E0808396
:1000B0002FE738E341E0215030404040E1F700C0F5
:1000C00000000196811521E0920789F71092B30094
:1000D0003FEF43ED80E3315040408040E1F700C006
:1000E0000000299880E090E0E3EBF0E080832FE7C8
:1000F00038E341E0215030404040E1F700C00000CB
:100100000196811521E0920789F71092B3002A9A8F
:06011000FFCFF894FFCFC1
:00000001FF
