:100000000C9434000C943E000C943E000C943E0082
:100010000C943E000C943E000C943E000C943E0068
:100020000C943E000C943E000C943E000C943E0058
:100030000C943E000C943E000C943E000C943E0048
:100040000C943E000C943E000C943E000C943E0038
:100050000C943E000C943E000C943E000C943E0028
:100060000C943E000C943E0011241FBECFEFD8E04C
:10007000DEBFCDBF0E9460000C9480000C94000095
:1000800084B1886384B908952D9A2D9808952C9A87
:100090002C9808951F93CF93DF93EC0110E1DD239B
:1000A00014F42B9A01C02B980E944400CC0FDD1F42
:1000B0001150A9F70E944700DF91CF911F91089539
:1000C0000E94400010E0C1E0D0E0812F90E09C0150
:1000D0002F5F3F4F2F703078122F9E0102C0220FEA
:1000E000331F8A95E2F7C9010E944A003FEF83EC73
:1000F00099E0315080409040E1F700C00000E5CF2A
:04010000F894FFCFA1
:00000001FF
