:100000000C9459000C9481000C9481000C94810094
:100010000C9481000C9481000C9481000C9481005C
:100020000C9481000C9481000C9481000C9481004C
:100030000C9481000C9481000C9481000C9481003C
:100040000C9483050C9481000C94F7070C942908F8
:100050000C9481000C9481000C9481000C9481001C
:100060000C9456040C94810000000008000201006A
:100070000003040700000000000000000102040863
:100080001020408001020408102001020408102002
:10009000040404040404040402020202020203032E
:1000A0000303030300000000250028002B00740355
:1000B000590811241FBECFEFD8E0DEBFCDBF11E03D
:1000C000A0E0B1E0E2E1FAE102C005900D92A637AE
:1000D000B107D9F722E0A6E7B1E001C01D92A03E2A
:1000E000B207E1F710E0C2EBD0E004C02297FE01B6
:1000F0000E94960ACE3AD107C9F70E949D080C9437
:10010000070D0C94000026E040E855E260E070E046
:100110008FE392E00E94950786E791E00E94380302
:100120000C949C01CF93DF93CDB7DEB762970FB6E7
:10013000F894DEBF0FBECDBF88E3C82E92E2E92E51
:100140000CE021E049E06EED77E0CE0101960E94DF
:100150008801CE0101960E942A0260ED77E080E0DE
:1001600090E00E94F005CE010D960E949E0166E08F
:1001700071E08FE392E00E940E094AE06A89CE01A5
:1001800007960E94C609BE01695F7F4FCE010196A6
:100190000E94A5096FE171E0CE0101960E944B0A11
:1001A000BC018FE392E00E94FC08CE0101960E9400
:1001B0002009CE0107960E9420094AE06989CE01F4
:1001C00007960E94C609BE01695F7F4FCE01019666
:1001D0000E94A50967E271E0CE0101960E944B0AD8
:1001E000BC018FE392E00E94FC08CE0101960E94C0
:1001F0002009CE0107960E9420094AE06889CE01B5
:1002000007960E94C609BE01695F7F4FCE01019625
:100210000E94A5096FE271E0CE0101960E944B0A8F
:10022000BC018FE392E00E94FC08CE0101960E947F
:100230002009CE0107960E9420094AE06F85CE0171
:1002400007960E94C609BE01695F7F4FCE010196E5
:100250000E94A50965E371E0CE0101960E944B0A58
:10026000BC018FE392E00E94FC08CE0101960E943F
:100270002009CE0107960E9420094AE06E85CE0132
:1002800007960E94C609BE01695F7F4FCE010196A5
:100290000E94A5096AE371E0CE0101960E944B0A13
:1002A000BC018FE392E00E94FC08CE0101960E94FF
:1002B0002009CE0107960E9420096D8570E06053E9
:1002C000784F4AE0CE0107960E94F309BE01695FAC
:1002D0007F4FCE0101960E94A50961E471E0CE0135
:1002E00001960E944B0ABC018FE392E00E94FC0839
:1002F000CE0101960E942009CE0107960E94200996
:10030000FFCFDC01ED91FC910190F081E02D09948B
:10031000CF92EF920F93FC01603D87E0780710F0D9
:10032000605D77406083418322830383E482C582DA
:100330000F91EF90CF90089581E00895CF92DF92D2
:10034000EF92FF920F931F93CF93DF93EC0168E638
:1003500070E086E791E00E945C0360E070E086E771
:1003600091E00E94810186E791E00E94710347E0DD
:1003700050E068E670E086E791E00E944F0386E770
:1003800091E00E94A9028F77982F92959F701AEFA3
:10039000082F919F000D112486E791E00E94A90289
:1003A0009C013327F4E035952795FA95E1F7F82E6F
:1003B000129FF00C112486E791E00E94A9029C0193
:1003C0003327A4E035952795AA95E1F7E82E129FEB
:1003D000E00C112486E791E00E94A90286E791E0F3
:1003E0000E94A9029C013327B4E035952795BA9560
:1003F000E1F7D82E129FD00C112486E791E00E94DD
:10040000A9029C01332794E0359527959A95E1F749
:10041000C82E129FC00C112486E791E00E94A90209
:100420009C01332744E0359527954A95E1F7129FC3
:10043000800D11248883C982DA82EB82FC820D83CD
:10044000CE01DF91CF911F910F91FF90EF90DF9040
:10045000CF9008951F93CF93DF93EC0168E670E08F
:1004600086E791E00E945C0360E070E086E791E03F
:100470000E9481012D811AE0822F612F0E94660A5D
:10048000682F660F680F660F620F86E791E00E9483
:10049000F9022C81822F612F0E94660A682F660F55
:1004A000680F660F620F86E791E00E94F9022B81C8
:1004B000822F612F0E94660A682F660F680F660FF1
:1004C000620F86E791E00E94F90260E086E791E022
:1004D0000E94F9022A81822F612F0E94660A682FEA
:1004E000660F680F660F620F86E791E00E94F902BF
:1004F0002981822F612F0E94660A682F660F680F7C
:10050000660F620F86E791E00E94F9022881822F30
:10051000612F0E94660A682F660F680F660F620FD0
:1005200086E791E00E94F90260E070E086E791E0E2
:100530000E94810186E791E0DF91CF911F910C9499
:1005400071038091A60190E02091A701821B91097F
:1005500008952091A7018091A601281750F4E22F59
:10056000F0E0E855FE4F808190E02F5F2093A701D7
:1005700008958FEF9FEF0895E091A7018091A60164
:10058000E81730F4F0E0E855FE4F808190E00895E0
:100590008FEF9FEF08950895CF92DF92EF92FF9231
:1005A0000F931F93CF93DF937C01CB018A0120919E
:1005B0008201222389F0EB016B01C40ED51ECC15FC
:1005C000DD0569F06991D701ED91FC910190F08111
:1005D000E02DC7010995F3CF642F0E942D04C801B7
:1005E000DF91CF911F910F91FF90EF90DF90CF900F
:1005F0000895CF93DF931F92CDB7DEB76983209123
:1006000082012223D1F020918301203240F021E0A9
:1006100030E0FC013383228380E090E015C08091BC
:100620008401E82FF0E0EB57FE4F998190838F5FB4
:10063000809384018093830105C061E0CE0101961F
:100640000E942D0481E090E00F90DF91CF910895FA
:10065000FC011382128248EE53E060E070E04483B4
:100660005583668377838BE491E09183808308953B
:100670001092A7011092A60110928401109283019A
:100680000C947803862F413208F040E268EA71E06A
:100690000E9496031092A7018093A601089521E07D
:1006A0000C94420381E0809382016093A501109233
:1006B00084011092830108950C9452030F93062F26
:1006C00021E04091830165E871E08091A5010E94DD
:1006D000DA031092840110928301109282010F912B
:1006E000089561E00C945E0386E791E00C94280382
:1006F0001092350281E0809333021092320261E061
:1007000082E10E947C0661E083E10E947C06E9EBC5
:10071000F0E080818E7F808380818D7F808388E47C
:100720008093B80085E48093BC000895413208F0BE
:100730003FC0909135029111FCCF91E0909335022A
:10074000209333022FEF2093C80110920D02240F43
:1007500020930C029093340290913402880F892BDD
:100760008093340280913202813041F4109232023F
:10077000809134028093BB0085EC01C085EE8093AC
:10078000BC00809135028130E1F380910D02841725
:1007900010F440910D022EE032E0FB01D9018A2FC6
:1007A000821B841718F48D918193F9CF842F0895BB
:1007B00080E008950F93413208F046C090913502D1
:1007C0009111FCCF92E090933502009333029FEF9A
:1007D0009093C80110920D0240930C02FB016EE051
:1007E00072E0DB019A2F961B941718F491919D9358
:1007F000F9CF1092340290913402880F892B8093A4
:10080000340280913202813041F4109232028091A0
:1008100034028093BB0085EC01C085EE8093BC0060
:10082000222321F0809135028230E1F38091C801CA
:100830008F3F61F08091C801803251F08091C801F2
:10084000803341F483E007C081E005C080E003C04D
:1008500082E001C084E00F910895613298F4209104
:100860003502243089F46093EA01FC018CEE91E0BA
:10087000DC012A2F281B261718F421912D93F9CF7C
:1008800080E0089581E0089582E0089585ED8093E9
:10089000BC008091BC0084FDFCCF1092350208950D
:1008A00085EC8093BC001092350208951F920F9240
:1008B0000FB60F9211242F933F934F935F936F9333
:1008C0007F938F939F93AF93BF93EF93FF93809109
:1008D000B900887F803609F49CC068F5883209F435
:1008E0005BC090F4803109F454C038F4882309F4D3
:1008F000F5C0883009F44DC0F5C0883109F44CC00A
:10090000803209F45DC0EEC0803409F468C048F458
:10091000803309F455C0883309F0E4C08093C801DE
:10092000A8C0803509F44FC0883509F45DC088340B
:1009300009F0D8C0D5C0883909F4C6C0A8F48837F2
:1009400009F467C038F4883609F463C0803709F4C5
:1009500060C0C8C0883809F4B7C0803909F45FC0E6
:10096000803809F0BFC05BC0803B09F485C038F413
:10097000803A09F466C0883A09F47EC0B3C0803C6E
:1009800009F4A6C0883C09F4A3C0883B09F489C0D7
:10099000A9C08091340210C090910D0280910C0288
:1009A000981770F5E0910D0281E08E0F80930D0293
:1009B000F0E0E25FFD4F80818093BB0085EC85C055
:1009C0008093C8018DC0E0910D0281E08E0F80936D
:1009D0000D028091BB00F0E0E25FFD4F80839091BB
:1009E0000D0280910C026DC0E0910D0281E08E0F2E
:1009F00080930D028091BB00F0E0E25FFD4F8083A9
:100A00008091330281116CC081E08093320284EACC
:100A100060C083E0809335021092C901CFCF8091EE
:100A2000C901803208F050C0E091C90181E08E0F09
:100A30008093C9018091BB00F0E0E653FE4F8083B4
:100A4000BDCF8091C901803230F4E091C901F0E05E
:100A5000E653FE4F10820E9446046091C90170E087
:100A6000E0912E02F0912F028AEC91E0099510920C
:100A7000C9010E94500436C084E080933502109270
:100A8000EB011092EA01E0913002F09131020995F8
:100A90008091EA01811105C081E08093EA01109202
:100AA000EC01E091EB0181E08E0F8093EB01F0E02F
:100AB000E451FE4F80818093BB009091EB018091C7
:100AC000EA01981708F47ACF85E88093BC000AC041
:100AD00085EC8093BC001092350204C01092C801CE
:100AE0000E944604FF91EF91BF91AF919F918F912A
:100AF0007F916F915F914F913F912F910F900FBE1A
:100B00000F901F9018951F920F920FB60F921124FD
:100B10002F933F938F939F93AF93BF93809137020F
:100B200090913802A0913902B0913A023091360288
:100B300023E0230F2D3720F40196A11DB11D05C020
:100B400026E8230F0296A11DB11D20933602809343
:100B5000370290933802A0933902B0933A02809101
:100B60003B0290913C02A0913D02B0913E02019661
:100B7000A11DB11D80933B0290933C02A0933D02C6
:100B8000B0933E02BF91AF919F918F913F912F9172
:100B90000F900FBE0F901F9018953FB7F89480915B
:100BA0003B0290913C02A0913D02B0913E0226B5DD
:100BB000A89B05C02F3F19F00196A11DB11D3FBF95
:100BC0006627782F892F9A2F620F711D811D911D25
:100BD00042E0660F771F881F991F4A95D1F7089545
:100BE000CF92DF92EF92FF92CF93DF936B017C0164
:100BF0000E94CD05EB01C114D104E104F10489F098
:100C00000E94650A0E94CD056C1B7D0B683E7340F7
:100C100090F381E0C81AD108E108F108C851DC4F0F
:100C2000EACFDF91CF91FF90EF90DF90CF900895C2
:100C3000789484B5826084BD84B5816084BD85B5B7
:100C4000826085BD85B5816085BDEEE6F0E080817E
:100C500081608083E1E8F0E010828081826080839F
:100C6000808181608083E0E8F0E080818160808322
:100C7000E1EBF0E0808184608083E0EBF0E0808154
:100C800081608083EAE7F0E08081846080838081F6
:100C9000826080838081816080838081806880839E
:100CA0001092C1000895833081F028F4813099F0CA
:100CB0008230A1F008958730A9F08830B9F08430EF
:100CC000D1F4809180008F7D03C0809180008F7768
:100CD00080938000089584B58F7702C084B58F7D9E
:100CE00084BD08958091B0008F7703C08091B000DB
:100CF0008F7D8093B00008950F931F93CF93DF9360
:100D00001F92CDB7DEB7282F30E0F901E859FF4F29
:100D10008491F901E458FF4F1491F901E057FF4F16
:100D200004910023C9F0882321F069830E945306AF
:100D30006981E02FF0E0EE0FFF1FEC55FF4FA5910A
:100D4000B4919FB7F8948C91611103C010958123E1
:100D500001C0812B8C939FBF0F90DF91CF911F918A
:100D60000F910895FC01818D228D90E0805C9F4F52
:100D7000821B91098F7399270895FC01918D828DB3
:100D8000981731F0828DE80FF11D858D90E0089560
:100D90008FEF9FEF0895FC01918D828D981761F080
:100DA000828DDF01A80FB11D5D968C91928D9F5FA2
:100DB0009F73928F90E008958FEF9FEF08958FE4D7
:100DC00098E0892B49F080E090E0892B29F00E947F
:100DD0004F0881110C9400000895FC01848DDF01FF
:100DE000A80FB11DA35ABF4F2C91848D90E001969E
:100DF0008F739927848FA689B7892C93A089B1898D
:100E00008C9180648C93938D848D981306C0028896
:100E1000F389E02D80818F7D80830895CF93DF93C8
:100E2000EC01888D8823C9F0EA89FB89808185FDE2
:100E300005C0A889B9898C9186FD0FC00FB607FC43
:100E4000F5CF808185FFF2CFA889B9898C9185FF84
:100E5000EDCFCE010E94ED06E7CFDF91CF9108954F
:100E6000CF92DF92FF920F931F93CF93DF931F9246
:100E7000CDB7DEB76C0181E0D60158968C935897B8
:100E80005B969C915B975C968C915C97981307C0DE
:100E90005096ED91FC915197808185FD2EC0F60111
:100EA000038D10E00F5F1F4F0F731127F02EF60117
:100EB000848DF81211C00FB607FCF9CFD6015096F9
:100EC000ED91FC915197808185FFF1CFC601698337
:100ED0000E94ED066981EBCF838DE80FF11DE35A87
:100EE000FF4F6083D6015B960C935B975296ED9112
:100EF000FC915397808180620CC0D6015696ED918B
:100F0000FC91579760835096ED91FC9151978081A9
:100F10008064808381E090E00F90DF91CF911F91FA
:100F20000F91FF90DF90CF900895BF92CF92DF9204
:100F3000EF92FF92CF93DF93EC016A017B01B22E17
:100F4000E889F98982E08083411581EE58076105BF
:100F50007105A1F060E079E08DE390E0A7019601D2
:100F60000E94720A2150310941095109569547954D
:100F700037952795211580E1380798F0E889F98998
:100F8000108260E874E88EE190E0A70196010E946B
:100F9000720A2150310941095109569547953795F3
:100FA0002795EC85FD853083EE85FF852083188E9F
:100FB000EC89FD89B082EA89FB8980818061808328
:100FC000EA89FB89808188608083EA89FB89808146
:100FD00080688083EA89FB8980818F7D8083DF91AF
:100FE000CF91FF90EF90DF90CF90BF9008951F9228
:100FF0000F920FB60F9211242F938F939F93EF931D
:10100000FF93E0914F02F09150028081E0915502F0
:10101000F091560282FD12C09081809158028F5F3C
:101020008F7320915902821751F0E0915802F0E03D
:10103000E15CFD4F958F8093580201C08081FF9144
:10104000EF919F918F912F910F900FBE0F901F9056
:1010500018951F920F920FB60F9211242F933F9362
:101060004F935F936F937F938F939F93AF93BF93B0
:10107000EF93FF938FE392E00E94ED06FF91EF91D3
:10108000BF91AF919F918F917F916F915F914F91A0
:101090003F912F910F900FBE0F901F9018958FE3E7
:1010A00092E00E94B20621E0892B09F420E0822F11
:1010B0000895109242021092410288EE93E0A0E05F
:1010C000B0E08093430290934402A0934502B09312
:1010D00046028BE591E09093400280933F0285ECBD
:1010E00090E090934C0280934B0284EC90E09093BC
:1010F0004E0280934D0280EC90E0909350028093DA
:101100004F0281EC90E0909352028093510282EC66
:1011100090E0909354028093530286EC90E0909379
:101120005602809355021092580210925902109262
:101130005A0210925B02089508950E9418060E94B8
:101140009C080E948300CFEDD6E00E949200209779
:10115000E1F30E94DF06F9CFCF92DF92EF92FF9288
:101160000F931F93CF93DF936C017A01EB01E60E8F
:10117000F71E00E010E0CE15DF0561F06991D601A1
:10118000ED91FC910190F081E02DC6010995080FC9
:10119000191FF1CFC801DF91CF911F910F91FF90DF
:1011A000EF90DF90CF9008956115710581F0DB011C
:1011B0000D900020E9F7AD0141505109461B570B36
:1011C000DC01ED91FC910280F381E02D099480E037
:1011D00090E00895DC01ED91FC91DB0114964D91B6
:1011E0005C9115976D917C910280F381E02D0994BB
:1011F00067E671E00C94D4080F931F93CF93DF93AD
:10120000EC010E94EA088C01CE010E94F808800FD0
:10121000911FDF91CF911F910F9108950F931F930D
:10122000CF93DF93EC010E94D4088C01CE010E9481
:10123000F808800F911FDF91CF911F910F910895B2
:10124000FC01808191810C94320BCF93DF93EC01F0
:1012500088819981009711F00E94320B19821882BF
:101260001D821C821B821A82DF91CF9108950F93F9
:101270001F93CF93DF93EC018B016F5F7F4F8881CA
:1012800099810E94C10B009731F0998388831B8359
:101290000A8381E001C080E0DF91CF911F910F911F
:1012A0000895CF93DF93EC0188819981892B29F0F0
:1012B0008A819B818617970760F4CE010E943709C7
:1012C000882341F08C819D81892B19F4E881F98173
:1012D000108281E0DF91CF910895EF92FF920F93FA
:1012E0001F93CF93DF93EC017B018A01BA010E9427
:1012F0005109811104C0CE010E94250907C01D8338
:101300000C83B701888199810E94940CCE01DF91F2
:10131000CF911F910F91FF90EF900895CF93DF939E
:10132000EC01FB018617970761F0608171816115FF
:10133000710529F0448155810E946D0902C00E9407
:101340002509CE01DF91CF910895FC011182108211
:1013500013821282158214820C948E09CF93DF932C
:10136000EC016115710561F0FB0101900020E9F7C6
:10137000AF0141505109461B570B0E946D0902C035
:101380000E942509CE01DF91CF9108950F931F93FD
:10139000CF93DF93CDB7DEB729970FB6F894DEBFB2
:1013A0000FBECDBF8C01862FF801118210821382EF
:1013B00012821582148250E0BE016F5F7F4F90E071
:1013C0000E949B0CBE016F5F7F4FC8010E94AE0957
:1013D00029960FB6F894DEBF0FBECDBFDF91CF9137
:1013E0001F910F9108950F931F93CF93DF93CDB764
:1013F000DEB761970FB6F894DEBF0FBECDBF8C018C
:10140000CB01F8011182108213821282158214829C
:1014100050E0BE016F5F7F4F0E949B0CBE016F5F6B
:101420007F4FC8010E94AE0961960FB6F894DEBFE7
:101430000FBECDBFDF91CF911F910F910895EF9215
:10144000FF920F931F93CF93DF93EC017B010C81ED
:101450001D816115710511F480E016C0411551051B
:1014600091F0040F151FB8010E9451098823A1F3C0
:10147000288139818C819D81B701820F931F0E9441
:10148000940C1D830C8381E0DF91CF911F910F910C
:10149000FF90EF900895CF93DF93EC0161157105F4
:1014A00069F0FB0101900020E9F7AF0141505109BB
:1014B000461B570B0E941F0A811103C0CE010E94D8
:1014C0002509CE01DF91CF9108950895991B79E008
:1014D00004C0991F961708F0961B881F7A95C9F7C4
:1014E00080950895A1E21A2EAA1BBB1BFD010DC019
:1014F000AA1FBB1FEE1FFF1FA217B307E407F507C4
:1015000020F0A21BB30BE40BF50B661F771F881F9F
:10151000991F1A9469F760957095809590959B0135
:10152000AC01BD01CF010895EE0FFF1F0590F491AE
:10153000E02D0994CF93DF938230910510F482E07F
:1015400090E0E091DE02F091DF0220E030E0A0E0E8
:10155000B0E0309739F14081518148175907B8F010
:101560004817590771F482819381109729F01396D7
:101570009C938E9312972CC09093DF028093DE028F
:1015800027C02115310531F04217530718F0A90182
:10159000DB0101C0EF019A01BD01DF010280F3818F
:1015A000E02DD7CF21153105F9F0281B390B243058
:1015B000310580F48A819B816115710521F0FB0161
:1015C0009383828304C09093DF028093DE02FE0146
:1015D000329644C0FE01E20FF31F81939193225093
:1015E0003109398328833AC02091DC023091DD0231
:1015F000232B41F420910201309103013093DD024D
:101600002093DC0220910001309101012115310568
:1016100041F42DB73EB74091040150910501241BC0
:10162000350BE091DC02F091DD02E217F307A0F444
:101630002E1B3F0B2817390778F0AC014E5F5F4F28
:101640002417350748F04E0F5F1F5093DD0240937B
:10165000DC028193919302C0E0E0F0E0CF01DF91E2
:10166000CF910895CF93DF93009709F487C0FC01D1
:10167000329713821282C091DE02D091DF0220974E
:1016800081F420813181280F391F8091DC029091F3
:10169000DD028217930779F5F093DD02E093DC0217
:1016A0006DC0DE0120E030E0AE17BF0750F41296A7
:1016B0004D915C9113979D014115510509F1DA0196
:1016C000F3CFB383A28340815181840F951F8A1782
:1016D0009B0771F48D919C911197840F951F029631
:1016E0009183808312968D919C911397938382832B
:1016F0002115310529F4F093DF02E093DE023EC0AC
:10170000D9011396FC93EE9312974D915D91A40F1E
:10171000B51FEA17FB0779F480819181840F951F2B
:101720000296D90111969C938E9382819381139690
:101730009C938E931297E0E0F0E08A819B81009762
:1017400019F0FE01EC01F9CFCE0102962881398112
:10175000820F931F2091DC023091DD022817390798
:1017600069F4309729F41092DF021092DE0202C071
:1017700013821282D093DD02C093DC02DF91CF91FD
:101780000895A0E0B0E0E7ECFBE00C94D40CEC0191
:10179000CB01209719F40E949A0AB8C0FE01E60F07
:1017A000F71F9E0122503109E217F30708F4ACC07D
:1017B000D9010D911C91119706171707B8F0053044
:1017C000110508F49FC0A801445051094617570756
:1017D00008F498C002501109061B170B01931193CE
:1017E0006D937C93CF010E94320B8CC05B01A01AD9
:1017F000B10A4E01800E911EA091DE02B091DF026F
:10180000612C712C60E070E0109709F449C0A815B4
:10181000B905C9F5ED90FC901197670142E0C40E3F
:10182000D11CCA14DB0478F147018A189B086401B3
:1018300042E0C40ED11C1296BC9012971396AC9144
:10184000B5E0CB16D10440F0B282A38391828082AE
:10185000D9018D939C9309C00E5F1F4F0E0D1F1D64
:10186000F90111830083EB2DFA2F6115710531F019
:10187000DB011396FC93EE93129744C0F093DF02C2
:10188000E093DE023FC06D917C911197661677065A
:1018900008F43B01BD0112960D90BC91A02DB4CF70
:1018A0006091DC027091DD0268157905E9F4681633
:1018B0007906D0F440910001509101014115510584
:1018C00041F44DB75EB76091040170910501461B6C
:1018D000570BE417F507C0F4F093DD02E093DC0248
:1018E000F901918380830EC00E949A0A7C010097BF
:1018F00059F0A801BE010E948B0CCE010E94320B50
:10190000C70104C0CE0102C080E090E0CDB7DEB7D1
:10191000EEE00C94F00CFB01DC0102C001900D9292
:1019200041505040D8F70895FB01DC0101900D9221
:101930000020E1F708954532510520F4423010F0BF
:101940000C94A60CFB011082CB010895BB27FB0170
:101950005527AA27880F991FAA1FA41710F0A41BA8
:1019600083955051B9F7A05DAA3308F0A95DA19302
:10197000009779F7B111B1931192CB010C94C00C7F
:10198000DC01FC01672F71917723E1F7329704C0E6
:101990007C916D9370836291AE17BF07C8F3089571
:1019A0002F923F924F925F926F927F928F929F926F
:1019B000AF92BF92CF92DF92EF92FF920F931F935D
:1019C000CF93DF93CDB7DEB7CA1BDB0B0FB6F8940E
:1019D000DEBF0FBECDBF09942A88398848885F844E
:1019E0006E847D848C849B84AA84B984C884DF80BF
:1019F000EE80FD800C811B81AA81B981CE0FD11DA3
:101A00000FB6F894DEBF0FBECDBFED010895F89478
:021A1000FFCF06
:101A12000000E00280002A2054696D652F44617441
:101A2200652052657472696576616C2E2E2E0020D7
:101A32007365636F6E6400206D696E757465002056
:101A4200686F7572002064617900206D6F6E746832
:101A52000020796561720000000000F902CC02A149
:101A620002A902BC02CB02000000003007AC08B29F
:101A720006CB06BD060E070D0A006E616E00696E8A
:061A820066006F766600AD
:00000001FF
