S014000043485F31345F636F64655F362E7372656332
S11300000C9434000C943E000C943E000C943E007E
S11300100C943E000C943E000C943E000C943E0064
S11300200C943E000C943E000C943E000C943E0054
S11300300C943E000C943E000C943E000C943E0044
S11300400C943E000C943E000C943E000C943E0034
S11300500C943E000C943E000C943E000C943E0024
S11300600C943E000C943E0011241FBECFEFD8E048
S1130070DEBFCDBF0E9440000C9455000C940000DC
S1130080E1E8F0E080818560808380E090E29093F5
S1130090890080938800A0E8B0E08C9180648C9300
S11100A0808188608083219AFFCFF894FFCF7F
S9030000FC
