S014000043485F31315F636F64655F362E7372656335
S11300000C9434000C943E000C943E000C943E007E
S11300100C943E000C943E000C943E000C943E0064
S11300200C943E000C943E000C943E000C943E0054
S11300300C943E000C943E000C943E000C943E0044
S11300400C943E000C943E000C943E000C943E0034
S11300500C943E000C943E000C943E000C943E0024
S11300600C943E000C943E0011241FBECFEFD8E048
S1130070DEBFCDBF0E9458000C9496000C94000083
S113008080E284B915B81AB884E08BB908954A9906
S11300900DC08FE39CE90197F1F700C0000089B11E
S11300A082FB882780F991E08927089580E00895EC
S11300B00E9476000E944000C0E0D0E0D12CE12CE8
S11300C06894FF24F5F801E010E00E9447008823BB
S11300D049F0CD2B19F48AE20E948E00F5B8C02FA6
S11300E0D12FF3CF15B8CD2DDE2DEFCFE0ECF0E01E
S11300F08081826080831092C5008FEC8093C4005D
S1130100E2ECF0E0808186608083E1ECF0E08081C5
S1130110806180838081886080830895E0ECF0E0D2
S1130120908195FFFDCF8093C6000895F894FFCF8A
S9030000FC
