:100000000C9434000C943E000C943E000C943E0082
:100010000C943E000C943E000C943E000C943E0068
:100020000C943E000C943E000C943E000C943E0058
:100030000C943E000C943E000C943E000C943E0048
:100040000C943E000C943E000C943E000C943E0038
:100050000C943E000C943E000C943E000C943E0028
:100060000C943E000C943E0011241FBECFEFD8E04C
:10007000DEBFCDBF0E9440000C949B000C9400009A
:100080008FEF8AB970E860E450E240E138E024E0A4
:1000900092E081E07BB9AFEFE3EDF0E3A150E04007
:1000A000F040E1F700C000006BB9AFEFE3EDF0E323
:1000B000A150E040F040E1F700C000005BB9AFEFB5
:1000C000E3EDF0E3A150E040F040E1F700C00000B4
:1000D0004BB9AFEFE3EDF0E3A150E040F040E1F7C2
:1000E00000C000003BB9AFEFE3EDF0E3A150E0400A
:1000F000F040E1F700C000002BB9AFEFE3EDF0E313
:10010000A150E040F040E1F700C000009BB9AFEF24
:10011000E3EDF0E3A150E040F040E1F700C0000063
:100120008BB9AFEFE3EDF0E3A150E040F040E1F731
:0A01300000C00000AFCFF894FFCF2D
:00000001FF
