:100000000C9434000C9451000C9451000C94510049
:100010000C9451000C9451000C9451000C9451001C
:100020000C9451000C9451000C9451000C9451000C
:100030000C9451000C9451000C9451000C945100FC
:100040000C9453000C9451000C9451000C945100EA
:100050000C9451000C9451000C9451000C945100DC
:100060000C9451000C94510011241FBECFEFD8E026
:10007000DEBFCDBF11E0A0E0B1E0E4EAF1E002C0F4
:1000800005900D92AA30B107D9F721E0AAE0B1E0BE
:1000900001C01D92AC30B207E1F70E946A000C94D7
:1000A000D0000C9400001F920F920FB60F921124F3
:1000B0008F939F9380910A0190910B0101969093E9
:1000C0000B0180930A019F918F910F900FBE0F90AB
:1000D0001F901895CF93DF93CDB7DEB72A970FB651
:1000E000F894DEBF0FBECDBF8AE0E0E0F1E0DE01B4
:1000F000119601900D928A95E1F78FEF8AB9898167
:100100008BB985B5856085BDEEE6F0E080818160C4
:100110008083789440E050E0EAE0F0E020910A012A
:1001200030910B012D333105C9F710920B0110925C
:100130000A01CA010196BF010E94A800AC01A1E01A
:10014000B0E0AC0FBD1FA80FB91F8C918BB9E6CFE3
:1001500097FB072E16F4009407D077FD09D00E9474
:10016000BC0007FC05D03EF4909581959F4F089503
:10017000709561957F4F0895AA1BBB1B51E107C085
:10018000AA1FBB1FA617B70710F0A61BB70B881F27
:10019000991F5A95A9F780959095BC01CD010895B6
:0401A000F894FFCF01
:0A01A400FC60DAF266B6BEE4FEE687
:00000001FF
