:100000000C9434000C9449000C9449000C94490061
:100010000C9449000C9449000C9449000C9449003C
:100020000C9449000C9449000C9449000C9449002C
:100030000C9449000C9449000C9449000C9449001C
:100040000C9449000C9449000C9449000C9449000C
:100050000C9449000C9449000C9449000C944900FC
:100060000C9449000C94490011241FBECFEFD8E036
:10007000DEBFCDBF11E0A0E0B1E0E0E2F2E002C0FF
:1000800005900D92AA30B107D9F70E944B000C944D
:100090000E010C940000CF93DF93CDB7DEB72A9703
:1000A0000FB6F894DEBF0FBECDBF8AE0E0E0F1E00E
:1000B000DE01119601900D928A95E1F78FEF8AB9D2
:1000C0008FE084B928EE33E00F2EFEE0BF2EF02D36
:1000D0000F2EF8EEFF2EF02D43E00F2EFDE0CF2E79
:1000E000F02D04E610E0EAE0F0E00F2EFBE0DF2E5A
:1000F000F02D0F2EF7E0EF2EF02D02C02F2D342F14
:10010000B5B8C9016F2D742F0E94E600A1E0B0E0E0
:10011000AC0FBD1FA60FB71F8C918BB98FE19EE46A
:100120000197F1F700C00000C5B8C901B8010E94ED
:10013000E600CB01BF010E94E600A1E0B0E0AC0FF9
:10014000BD1FA80FB91F8C918BB98FE19EE4019759
:10015000F1F700C00000D5B8C901BF010E94E60058
:10016000CB01BF010E94E600A1E0B0E0AC0FBD1FD3
:10017000A80FB91F8C918BB98FE19EE40197F1F71D
:1001800000C00000E5B8C901BF010E94E600A1E07F
:10019000B0E0AC0FBD1FA80FB91F8C918BB98FE1D8
:1001A0009EE40197F1F700C000009FEF51EE84E05C
:1001B000915050408040E1F700C000002F5F3F4F5A
:1001C000203197E2390709F09BCF98CF97FB072E94
:1001D00016F4009407D077FD09D00E94FA0007FCBE
:1001E00005D03EF4909581959F4F08957095619547
:1001F0007F4F0895AA1BBB1B51E107C0AA1FBB1F5D
:10020000A617B70710F0A61BB70B881F991F5A95A2
:10021000A9F780959095BC01CD010895F894FFCF82
:0A022000FC60DAF266B6BEE4FEE60A
:00000001FF
