S014000043485F31335F636F64655F382E7372656331
S11300000C9434000C943E000C943E000C943E007E
S11300100C943E000C9440000C943E000C943E0062
S11300200C943E000C943E000C943E000C943E0054
S11300300C943E000C943E000C943E000C943E0044
S11300400C943E000C943E000C943E000C943E0034
S11300500C943E000C943E000C943E000C943E0024
S11300600C943E000C943E0011241FBECFEFD8E048
S1130070DEBFCDBF0E9465000C946A000C940000A2
S11300801F920F920FB60F9211248F934A9B02C0B6
S113009015B802C080E285B98F910F900FBE0F9002
S11300A01F90189580E284B915B81AB884E08BB90A
S11300B00895E8E6F0E0808184608083EDE6F0E076
S11300C0808184608083789408950E9452000E9405
S10B00D05900FFCFF894FFCFA3
S9030000FC
