:100000000C9434000C9449000C9449000C94490061
:100010000C9449000C9449000C9449000C9449003C
:100020000C9449000C9449000C9449000C9449002C
:100030000C9449000C9449000C9449000C9449001C
:100040000C9449000C9449000C9449000C9449000C
:100050000C9449000C9449000C9449000C944900FC
:100060000C9449000C94490011241FBECFEFD8E036
:10007000DEBFCDBF11E0A0E0B1E0E0E4F2E002C0FD
:1000800005900D92A032B107D9F70E944B000C9455
:100090001E010C94000029E288E190E00FB6F8946C
:1000A000A895809360000FBE209360000E947400AA
:1000B00080E091E00E949400C0E0D0E02FEF83ED5B
:1000C00090E3215080409040E1F700C0000021966D
:1000D00086E191E00E949400CE010E94A3008AE094
:1000E0000E948C00A895EACFE0ECF0E0808182606D
:1000F00080831092C5008FEC8093C400E2ECF0E0A6
:10010000808186608083E1ECF0E080818061808383
:100110008081886080830895E0ECF0E0908195FF15
:10012000FDCF8093C6000895CF93DF93EC018881C3
:10013000882331F021960E948C0089918111FBCF98
:10014000DF91CF9108950F931F93CF93DF9300D04A
:1001500000D000D0CDB7DEB7FC0140E350E060E056
:1001600070E049835A836B837C831E821D820097D3
:1001700019F400E010E03BC0AE014F5F5F4F00E0BC
:1001800010E09F01ADECBCEC0E940F0196958795A5
:1001900096958795969587959C01220F331F880F1A
:1001A000991F880F991F880F991F820F931F9F0116
:1001B000281B390BC901805DDA018D93AD019F01C8
:1001C000ADECBCEC0E940F01FC01F695E795F695AD
:1001D000E795F695E795C8010196309711F08C01E7
:1001E000D0CFFE01E80FF91F118211236CF0E1E07E
:1001F000F0E0EC0FFD1FE00FF11F80810E948C00EA
:100200000150110911239CF726960FB6F894DEBF12
:100210000FBECDBFDF91CF911F910F910895A29F87
:10022000B001B39FC001A39F700D811D1124911DCA
:10023000B29F700D811D1124911D0895F894FFCF78
:100240002A2A20496E697469616C697A6174696FE0
:100250006E202A2A0A00436F756E74203A2000002F
:00000001FF
