S014000043485F31345F636F64655F332E7372656335
S11300000C9434000C9446000C9446000C94460066
S11300100C9446000C9446000C9446000C94460044
S11300200C9446000C9446000C9446000C94460034
S11300300C9446000C9446000C9448000C94460022
S11300400C9446000C9446000C9446000C94460014
S11300500C9446000C9446000C9446000C94460004
S11300600C9446000C94460011241FBECFEFD8E038
S1130070DEBFCDBF21E0A0E0B1E001C01D92A430FD
S1130080B207E1F70E9460000C9490000C94000009
S11300901F920F920FB60F9211248F939F9380910A
S11300A00201909103010196909303018093020150
S11300B016BC9F918F910F900FBE0F901F901895B3
S11300C080E284B915B885B5856085BD80E887BDB3
S11300D0EEE6F0E0808182608083789451E040E035
S11300E06FEF809102019091030180349105C9F76B
S11300F01092030110920201852F942F2091000188
S113010030910101232B11F080E090E090930101E4
S113011080930001892B11F065B9E3CF15B8E1CFC5
S1070120F894FFCF7D
S9030000FC
