:100000000C9434000C9451000C9451000C94510049
:100010000C9451000C9451000C9451000C9451001C
:100020000C9451000C9451000C9451000C9451000C
:100030000C9451000C9451000C9451000C945100FC
:100040000C9453000C9451000C9451000C945100EA
:100050000C9451000C9451000C9451000C945100DC
:100060000C9451000C94510011241FBECFEFD8E026
:10007000DEBFCDBF11E0A0E0B1E0EEE1F3E002C0F1
:1000800005900D92AA30B107D9F721E0AAE0B1E0BE
:1000900001C01D92A031B207E1F70E94AB000C94A1
:1000A0008D010C9400001F920F920FB60F92112435
:1000B0000F931F932F933F934F935F936F937F9370
:1000C0008F939F93AF93BF9300910C0110910D01FB
:1000D00020910E0130910F0180910A0190910B0146
:1000E0000F5F1F4F2F4F3F4F489668EE73E00E94FF
:1000F0006501AB01662757FD6095762F040F151F2C
:10010000261F371F00930C0110930D0120930E0141
:1001100030930F0190930B0180930A01BF91AF912F
:100120009F918F917F916F915F914F913F912F910F
:100130001F910F910F900FBE0F901F9018952FB722
:10014000F89460910C0170910D0180910E019091D5
:100150000F012FBF0895CF93DF93CDB7DEB72A9756
:100160000FB6F894DEBF0FBECDBF8AE0E0E0F1E04D
:10017000DE01119601900D928A95E1F785B58360B5
:1001800085BDEEE6F0E080818160808378940E94F6
:100190009F006B017C018FEF8AB98FE084B908EE74
:1001A00013E00F2EFEE02F2EF02D0F2EF8EE6F2E07
:1001B000F02D0F2EF3E07F2EF02D0F2EFDE03F2EC1
:1001C000F02D0F2EF4E6AF2EB12CF02D0F2EFAE00D
:1001D0008F2E912CF02D0F2EFBE04F2EF02D0F2E99
:1001E000F7E05F2EF02D04C06B017C01062D172D6A
:1001F00025B8C801662D772D0E946501E1E0F0E089
:10020000EC0FFD1FE60FF71F80818BB98FE19EE495
:100210000197F1F700C0000035B8C801B5010E9490
:100220006501CB01B4010E946501E1E0F0E0EC0F53
:10023000FD1FE80FF91F80818BB98FE19EE40197C4
:10024000F1F700C0000045B8C801B4010E94650183
:10025000CB01B4010E946501E1E0F0E0EC0FFD1F6D
:10026000E80FF91F80818BB98FE19EE40197F1F7C8
:1002700000C0000055B8C801B4010E946501E1E06A
:10028000F0E0EC0FFD1FE80FF91F80818BB98FE1C3
:100290009EE40197F1F700C000000E949F009B01BF
:1002A000AC012C193D094E095F0925363105410580
:1002B000510508F49DCF0F5F1F4F003127E2120751
:1002C00009F492CF6B017C0193CF97FB072E16F4B4
:1002D000009407D077FD09D00E94790107FC05D072
:1002E0003EF4909581959F4F0895709561957F4F4D
:1002F0000895AA1BBB1B51E107C0AA1FBB1FA6176D
:10030000B70710F0A61BB70B881F991F5A95A9F7BE
:0E03100080959095BC01CD010895F894FFCF23
:0A031E00FC60DAF266B6BEE4FEE60B
:00000001FF
