S014000043485F31325F636F64655F352E7372656335
S11300000C9434000C9449000C9449000C9449005D
S11300100C9449000C9449000C9449000C94490038
S11300200C9449000C9449000C9449000C94490028
S11300300C9449000C9449000C9449000C94490018
S11300400C9449000C9449000C9449000C94490008
S11300500C9449000C9449000C9449000C944900F8
S11300600C9449000C94490011241FBECFEFD8E032
S1130070DEBFCDBF11E0A0E0B1E0ECE0F3E002C0F0
S113008005900D92A230B107D9F70E946F000C942D
S113009084010C940000ACE7B0E09C9190649C93C4
S11300A0EAE7F0E090819760908390819068908374
S11300B09081906290832C919C91907E922B892BBD
S11300C08C938081806480830895EAE7F0E08081E6
S11300D084FFFDCF809178009091790008958EE09F
S11300E00E944B000E9499000F2EF4EBCF2EFBE2EE
S11300F0DF2EF1E1EF2EF12CF02D0E9465009C0122
S1130100442737FD4095542FC701B6010E9456017C
S1130110C9010E94C80080E091E00E94B9002FEF5D
S113012083ED90E3215080409040E1F700C000004F
S1130130E4CFE0ECF0E08081826080831092C5001F
S11301408FEC8093C400E2ECF0E0808186608083D1
S1130150E1ECF0E08081806180838081886080832D
S11301600895E0ECF0E0908195FFFDCF8093C60008
S11301700895CF93DF93EC018881882331F0219691
S11301800E94B10089918111FBCFDF91CF91089535
S11301900F931F93CF93DF9300D000D000D0CDB73F
S11301A0DEB7FC0140E350E060E070E049835A832D
S11301B06B837C831E821D82009719F400E010E09B
S11301C03BC0AE014F5F5F4F00E010E09F01ADEC1C
S11301D0BCEC0E94750196958795969587959695A2
S11301E087959C01220F331F880F991F880F991F31
S11301F0880F991F820F931F9F01281B390BC90178
S1130200805DDA018D93AD019F01ADECBCEC0E94E1
S11302107501FC01F695E795F695E795F695E79552
S1130220C8010196309711F08C01D0CFFE01E80F80
S1130230F91F118211236CF0E1E0F0E0EC0FFD1FD7
S1130240E00FF11F80810E94B100015011091123B8
S11302509CF726960FB6F894DEBF0FBECDBFDF9194
S1130260CF911F910F910895A1E21A2EAA1BBB1BD7
S1130270FD010DC0AA1FBB1FEE1FFF1FA217B3076E
S1130280E407F50720F0A21BB30BE40BF50B661F84
S1130290771F881F991F1A9469F760957095809548
S11302A090959B01AC01BD01CF010895052E97FBEC
S11302B01EF400940E946D0157FD07D00E94340182
S11302C007FC03D04EF40C946D0150954095309585
S11302D021953F4F4F4F5F4F0895909580957095AE
S11302E061957F4F8F4F9F4F0895A29FB001B39F99
S11302F0C001A39F700D811D1124911DB29F700D2B
S10F0300811D1124911D0895F894FFCF75
S105030C0A00E1
S9030000FC
